:100000000C9434000C9451000C9451000C94FD009D
:100010000C9451000C9451000C9451000C9451001C
:100020000C9451000C9451000C9451000C9451000C
:100030000C9451000C9451000C9451000C945100FC
:100040000C9451000C9451000C9451000C945100EC
:100050000C9451000C9431010C9451000C945100FB
:100060000C9451000C94510011241FBECFEFD8E026
:10007000DEBFCDBF11E0A0E0B1E0E2EDF2E002C0F2
:1000800005900D92A231B107D9F721E0A2E1B1E0CC
:1000900001C01D92AA31B207E1F70E9483000C94BF
:1000A00067010C940000ECE7F0E01082808180642E
:1000B000808380818F778083808180628083EAE77C
:1000C000F0E01082808188608083808187608083F7
:1000D00080818068808308958CE384B983E085B94A
:1000E0008FEF8AB91BB81092C100EBE6F0E0808177
:1000F00083608083E8E6F0E08081816080830E94F5
:100100005300789408950E946C0095B184E089278B
:1001100085B9809118018BB98FEB9DE50197F1F7B7
:1001200000C0000095B18CE0892785B9E0911401E9
:10013000F0911501EE5FFE4F80818BB98FEB9DE54D
:100140000197F1F700C0000095B188E1892785B9D2
:10015000E0911201F0911301EE5FFE4F80818BB9A7
:100160008FEB9DE50197F1F700C0000095B180E1AC
:10017000892785B9EAE7F0E08081806480838091F7
:100180001601909117018230910524F120911801F8
:10019000309119012817390754F485B1806285B967
:1001A00082E090E09093010180930001AECF8091B6
:1001B000000190910101029751F495B180E28927E5
:1001C00085B981E090E0909301018093000185B1B1
:1001D00085B99BCF8091000190910101029751F464
:1001E00095B180E2892785B981E090E09093010183
:1001F0008093000185B185B988CF1F920F920FB609
:100200000F9211248F939F93189912C08091180117
:1002100090911901019690931901809318018F3FD5
:10022000910534F08FEF90E09093190180931801BD
:10023000199910C08091180190911901019790931C
:100240001901809318011816190624F0109219014B
:10025000109218019F918F910F900FBE0F901F90D9
:1002600018951F920F920FB60F9211242F933F9360
:100270008F939F93EF93FF938091790090E09093F9
:100280001701809316018091780090917900892F51
:100290009927282F22952F7030E030931501209355
:1002A00014018F7099279093130180931201EAE74C
:1002B000F0E0808180618083FF91EF919F918F9129
:1002C0003F912F910F900FBE0F901F901895F894AB
:0202D000FFCF5E
:1002D20001003F065B4F666D7C077F6F777C395E5E
:0202E200797130
:00000001FF
