:100000000C9434000C9451000C9451000C94FB009F
:100010000C9451000C9451000C9451000C9451001C
:100020000C9451000C9451000C9451000C9451000C
:100030000C9451000C9451000C9451000C945100FC
:100040000C9451000C9451000C9451000C945100EC
:100050000C9451000C942F010C9451000C945100FD
:100060000C9451000C94510011241FBECFEFD8E026
:10007000DEBFCDBF11E0A0E0B1E0E8E3F3E002C0F5
:1000800005900D92A431B107D9F721E0A4E1B1E0C8
:1000900001C01D92AC31B207E1F70E9483000C94BD
:1000A0009A010C940000ECE7F0E0108280818064FB
:1000B000808380818F778083808180628083EAE77C
:1000C000F0E01082808188608083808187608083F7
:1000D00080818068808308958CE384B983E085B94A
:1000E0008FEF8AB91BB81092C100EBE6F0E0808177
:1000F00083608083E8E6F0E08081816080830E94F5
:100100005300789408950E946C0095B184E089278B
:1001100085B980911A018BB98FEB9DE50197F1F7B5
:1001200000C0000095B18CE0892785B9E0911801E5
:10013000F0E0EC5FFE4F80818BB98FEB9DE501977E
:10014000F1F700C0000095B188E1892785B9E091F9
:100150001901F0E0EC5FFE4F80818BB98FEB9DE5DC
:100160000197F1F700C0000095B180E1892785B9BA
:10017000EAE7F0E0808180648083809114019091AF
:1001800015018230910524F120911A0130911B0153
:100190002817390754F485B1806285B982E090E070
:1001A0009093010180930001B0CF80910001909164
:1001B0000101029751F495B180E2892785B981E068
:1001C00090E0909301018093000185B185B99DCFA6
:1001D0008091000190910101029751F495B180E264
:1001E000892785B981E090E0909301018093000117
:1001F00085B185B98ACF1F920F920FB60F92112445
:100200008F939F93189912C080911A0190911B01AE
:10021000019690931B0180931A018F3F910534F052
:100220008FEF90E090931B0180931A01199910C0F1
:1002300080911A0190911B01019790931B0180936B
:100240001A011816190624F010921B0110921A01B7
:100250009F918F910F900FBE0F901F9018951F9236
:100260000F920FB60F9211242F938F939F93EF93BA
:10027000FF93EAE7F0E080818061808380917900DC
:1002800090E0909315018093140180910201909168
:1002900003010197D1F5809179002FE0829FC00181
:1002A000112495958795959587959595879595951D
:1002B000879590911601891B809319018F30C1F4A5
:1002C000809118018F5F80931801809179002FE051
:1002D000829FC00111249595879595958795959551
:1002E00087959595879590931701809316010DC07A
:1002F000909118019F3049F48E3039F48FE080934B
:100300001901109203011092020180910201909153
:100310000301892B29F4809179008FE080931901E2
:10032000FF91EF919F918F912F910F900FBE0F90A2
:080330001F901895F894FFCF0F
:10033800010001003F065B4F666D7C077F6F777C8D
:04034800395E797130
:00000001FF
