:100000000C9434000C9446000C9446000C9461004F
:100010000C9446000C9446000C9446000C94460048
:100020000C9446000C9446000C9446000C94460038
:100030000C9446000C9446000C9446000C94460028
:100040000C9446000C9446000C9446000C94460018
:100050000C9446000C9446000C9446000C94460008
:100060000C9446000C94460011241FBECFEFD8E03C
:10007000DEBFCDBF21E0A0E0B1E001C01D92A23003
:10008000B207E1F70E945E000C9488000C94000017
:100090008CE184B983E085B98FEF8AB91BB885B14B
:1000A000846085B9EBE6F0E0808183608083E8E6D8
:1000B000F0E0808181608083789408950E944800F8
:1000C000FFCF1F920F920FB60F9211248F939F9321
:1000D000189909C0809100019091010101969093B7
:1000E000010180930001199909C08091000190914C
:1000F000010101979093010180930001809100011B
:100100008BB99F918F910F900FBE0F901F901895F4
:04011000F894FFCF91
:00000001FF
